:020000040800F2
:1000000090610020D50300085F270008E52500085F
:100010005D270008C92100088530000800000000A5
:1000200000000000000000000000000015030008B0
:10003000E92100080000000071030008E12A00081F
:10004000EF030008EF030008EF030008EF030008C8
:10005000EF030008EF030008EF030008EF030008B8
:10006000EF030008EF030008EF030008EF030008A8
:10007000EF030008EF030008EF030008EF03000898
:10008000EF030008EF030008EF030008EF03000888
:10009000EF030008EF030008EF030008EF03000878
:1000A000EF030008EF030008EF030008EF03000868
:1000B000EF030008EF030008EF030008EF03000858
:1000C000EF030008EF030008EF030008EF03000848
:1000D000EF030008152E00089D2E0008EF0300080E
:1000E000EF030008EF030008EF030008EF03000828
:1000F000EF030008EF030008EF030008EF03000818
:10010000EF030008EF030008EF030008EF03000807
:10011000EF030008EF030008512B0008EF0300086D
:10012000EF030008EF030008EF030008EF030008E7
:10013000EF030008EF030008EF030008EF030008D7
:10014000EF030008EF030008EF030008EF030008C7
:10015000EF030008EF030008EF030008EF030008B7
:10016000EF030008EF030008EF030008EF030008A7
:10017000EF030008EF030008EF030008EF03000897
:10018000EF030008EF03000800F002F800F0B2F8F7
:100190000AA090E8000C82448344AAF10107DA45E2
:1001A00001D100F0A7F8AFF2090EBAE80F0013F082
:1001B000010F18BFFB1A43F001031847709D0000A0
:1001C000909D00000A444FF0000C10F8013B13F022
:1001D000070408BF10F8014B1D1108BF10F8015BA0
:1001E000641E05D010F8016B641E01F8016BF9D193
:1001F00013F0080F1EBF10F8014BAD1C0C1B09D1EA
:100200006D1E58BF01F801CBFAD505E014F8016B5B
:1002100001F8016B6D1EF9D59142D6D370470000ED
:100220000023002400250026103A28BF78C1FBD8FF
:10023000520728BF30C148BF0B6070476E2900F0DD
:10024000C084702900F00182662908F09084652935
:1002500008F08D84672908F08A84612908F0898470
:1002600003681B0A28BF41F08001692900F07281F0
:10027000642900F06F81752900F06C816F2900F00E
:10028000C085782900F0CD81E92900F05B85E4295B
:1002900000F05885F52900F05585EF2900F0BD855F
:1002A000F82900F0CC810368DB0928BF41F0800108
:1002B000632900F0CA84732900F0CF84E32901F098
:1002C0000982F32901F00E82002070471FB508F063
:1002D00049FC01F0A3FA04000020002108F016FCFC
:1002E000401C60600020002108F026FCE0601FBD7B
:1002F00010B510BD01F06DFA1146FFF7E7FF04F0ED
:1003000055FB01F04FFB03B4FFF7F2FF03BC02F013
:10031000D9FE00002C4B19680868B0E8F04F80F354
:100320000988BFF36F8F4FF0000080F3118870478A
:100330000000000008480068006880F308884FF05B
:10034000000080F3148862B661B6BFF34F8FBFF32D
:100350006F8F00DF00BF00BF08ED00E0DFF80C008A
:10036000016841F470010160704700BF88ED00E052
:10037000EFF30980BFF36F8F134B1A681EF0100F55
:1003800008BF20ED108A20E9F04F106009B44FF04B
:10039000500080F31188BFF34F8FBFF36F8F07F0CA
:1003A000CBFB4FF0000080F3118809BC1968086886
:1003B000B0E8F04F1EF0100F08BFB0EC108A80F3C9
:1003C0000988BFF36F8F704750000020EFF305805E
:1003D000704700000948804709480047FEE7FEE7EC
:1003E000FEE7FEE7FEE7FEE7FEE7FEE7FEE7FEE7E5
:1003F00004480549054A064B70470000F52A0008E5
:1004000089010008905B002090610020905D002031
:10041000905D0020704700001CB50C46064B7B44E5
:1004200069460090204600F0E6FB0446002069463D
:1004300000F0F4FB20461CBDFB0700007CB51D4608
:1004400016460C00009001D02044401E074B7B4410
:100450002A4669460190304600F0CDFB05461CB1A6
:100460000020694600F0DAFB28467CBDD507000075
:100470000FB4044910B503AA029800F0F3FB10BCB6
:100480005DF814FB300000200FB41CB5084B06AA21
:100490007B4469460090059800F0ADFB04460020BF
:1004A000694600F0BBFB20461CBC5DF814FB000055
:1004B0008907000070B5044685690068C10601D54A
:1004C000302600E02026C00707D070BDD4E9012106
:1004D00030469047206A401C20626D1EF6D570BDE4
:1004E00070B5044685690078C00707D170BDD4E9AE
:1004F000012120209047206A401C20626D1EF6D505
:1005000070BD70B50C460546012A05D028788006D6
:1005100000D5EA69002302E0012305E05B1C934259
:1005200002D2E05C0028F9D1A869E618C01AA861D7
:10053000286A184428622846FFF7BCFF04E0D5E982
:10054000012114F8010B9047B442F8D32846FFF775
:10055000C7FF70BD2DE9F0410646002410687529DB
:10056000314616A510D000F0C1FA002802DA404248
:1005700013A507E031688A0701D512A502E04907F3
:1005800004D511A5012401E000F0B9FA00210A22E6
:1005900006F1240709E0B0FBF2FCB0FBF2F302FB2A
:1005A0001C00303078541846491C0028F3D12346EB
:1005B0002A463046BDE8F04100F0AABA000000002B
:1005C0002D0000002B00000020000000F0B40D46BC
:1005D0000188090502D5214C7C4402E01F4C7C4473
:1005E0000E34002100F1240608E002F00F07120982
:1005F000E75D42EA03721B097754491C52EA03077C
:10060000F3D102780023120704D5702D06D009B16A
:10061000022311342246F0BC00F07ABA01231034D0
:10062000F8E770B504460D462146106800F067FAF9
:10063000024629462046BDE870400023C6E7D21D89
:1006400022F00703D3E90023C0E70368126843F0F0
:10065000200303600823C3610023B7E75F8E000017
:100660002DE9F05F894604464FF0000ADFF874B1C7
:10067000FB44C0F820A02046E1688847002874D0D9
:10068000252806D0D4E901219047206A401C206229
:10069000F1E700265F462046E168884720280546A6
:1006A00007DB312D05D2781910F8200C08B106436C
:1006B000F1E7B00701D526F00406C4F81CA0002716
:1006C000C4F818A02A2D09D0284602F0F4FC38B34B
:1006D00004EB8708303DC8F8185019E059F8041B9E
:1006E000204604EB87029161E1688847012F0546A7
:1006F00018D1E069002820DA26F020061DE0D8F89D
:10070000180000EB800005EB40003038C8F81800F6
:100710002046E1688847054602F0CDFC0028EED16E
:10072000012F0AD02E2D08D12046E16888477F1C72
:100730000546022F46F02006C4DBA069002803DA34
:10074000404246F00106A061F00701D026F01006F5
:100750006C2D0BD0682D09D04C2D39D06A2D35D099
:10076000742D35D07A2D33D016E038E0E1682F466D
:1007700020468847B842054609D16C2F26D04FF451
:100780008060E168064320468847054604E06C2FF8
:100790001AD04FF4807006430DB3A5F1410019281B
:1007A00002D8203546F400664A462946204626608F
:1007B0004E46FFF743FD80B101280BD0F61D26F011
:1007C000070000F1080956E74020E4E78020D8E759
:1007D0000020D6E706F104094DE7284652E7206AD3
:1007E000BDE8F09FEF8D000070B5064600F07AF985
:1007F0000468054630460A22002100F019FB2C60EF
:1008000070BD10B5431E13F8014F002CFBD105E05D
:1008100011F8014B002C03F8014B03D0521EF7D204
:100820000021197010BD40EA0103024630B59B0754
:1008300010D14FF0013400E008C208C91D1B9D43D0
:1008400015EAC41FF8D013F0FF0102F8011B0DD008
:100850001B0AF8E711F8013B002B02F8013B05D019
:1008600011F8013B002B02F8013BF3D130BD10B56C
:10087000431C02E010F8011B71B18107FAD14FF05F
:10088000013202C88C1A8C4314EAC211F9D0C01A82
:100890000A0603D0C01E10BDC01A10BD0A0401D044
:1008A000801E10BD0902FCD0401E10BD40EA0103AD
:1008B00070B59B072ED14FF00136042A2AD308C801
:1008C00010C99D1B9D43121F15EAC61517D0D8B23B
:1008D000E1B2401A50EA056110D198B2A1B2401AB3
:1008E00050EA05410AD123F07F4024F07F41401AAD
:1008F00050EA052102D1180EA0EB146070BDA3428E
:10090000DBD018BA21BA884201D9012070BD4FF05E
:10091000FF3070BD0AB9002070BD10F8013B11F81E
:10092000014B63B1A3420AD1521E08D010F8013B1B
:1009300011F8014B1BB1A34201D1521EEDD1181B7E
:1009400070BD421E12F8013F002BFBD111F8013B94
:10095000002B02F8013BF9D17047032A40F23080A6
:1009600010F0030C00F0158011F8013BBCF1020FF0
:10097000624498BF11F801CB00F8013B38BF11F871
:10098000013BA2F1040298BF00F801CB38BF00F888
:10099000013B11F0030300F08382083AC0F00880A5
:1009A00051F8043B083A51F804CBA0E80810F5E7E9
:1009B000121D5CBF51F8043B40F8043BAFF30080CC
:1009C000D20724BF11F8013B11F801CB48BF11F841
:1009D000012B24BF00F8013B00F801CB48BF00F811
:1009E000012B704702F0FF0343EA032242EA02426E
:1009F00000F002B84FF000020429C0F0128010F09D
:100A0000030C00F01B80CCF1040CBCF1020F18BFEA
:100A100000F8012BA8BF20F8022BA1EB0C0100F07D
:100A20000DB85FEAC17C24BF00F8012B00F8012B50
:100A300048BF00F8012B70474FF0000200B5134685
:100A400094469646203922BFA0E80C50A0E80C50EE
:100A5000B1F12001BFF4F7AF090728BFA0E80C509F
:100A600048BF0CC05DF804EB890028BF40F8042B98
:100A700008BF704748BF20F8022B11F0804F18BF05
:100A800000F8012B704710B5044610F0030F08BFA3
:100A900011F0030F40F015804FF0013E121FC0F21D
:100AA0000E8051F8043BA3EB0E0C2CEA030C1CEA5D
:100AB000CE1C08BF40F8043BF0D0A1F1040102F1C4
:100AC0000402521E08DB11F8013B002B00F8013B29
:100AD000F7D11146FFF78EFF204610BD70477047D3
:100AE00070477047004870472C5B002009684A0532
:100AF00001D540B27047C905FCD500B270470968FE
:100B00004A0501D5C0B27047C905FCD580B270470F
:100B10002DE9F0470D4699469246044600F1240817
:100B20000168880604D5E06921F01001216000E029
:100B30000120A84201DD471B00E00027A1697A19C6
:100B400002EB0900081AA0612078C00602D42046F2
:100B5000FFF7B0FC002608E0D4E901211AF80600EE
:100B60009047206A401C761C20624E45F4DB2078BA
:100B7000C0060AD52046FFF79DFC06E0D4E9012116
:100B800030209047206A401C2062381EA7F10107E0
:100B9000F4DC07E0D4E9012118F805009047206A49
:100BA000401C2062281EA5F10105F3DC2046FFF75A
:100BB00097FC2078000602D50220BDE8F0870120CE
:100BC000FBE711680268006A530501D508700AE066
:100BD000D30501D5088006E0130603D5C217C1E985
:100BE000000200E0086001207047000001694A1C13
:100BF00002610878704700B58FB0CDE9013100215E
:100C0000059105497944CDE9031011466846FFF77F
:100C100027FD0FB000BD0000E5FFFFFF0A6802F8E6
:100C2000010B0A607047D1E900239A4202D2531C9B
:100C30000B601070704710B5436913B1AFF30080BB
:100C400001E0FFF75EFC012010BD127800F12401E5
:100C50000A7000224A700122EDE711684FF0FF325E
:100C6000E9E70000074B70B50D467B44FFF7C3FF73
:100C70000446284600F089FD10B14FF0FF3070BDEA
:100C8000204670BDB73800002DE9FF5F15468A4643
:100C90000446DFF8AC80F8440027D8E900103E464F
:100CA000CDE9001010E03AF816106A4602A800F0EC
:100CB00070FD411C07D02178890603D5E2693918F7
:100CC00091420DD80744761C2078800602D5E06951
:100CD000B84205DDAE42E6DB3AF816000028E2D164
:100CE000A069C01BA0612046FFF7E4FBD8E9001013
:100CF000CDE90010002017E03AF818106A4602A863
:100D000000F047FDB0F1FF3F81460BD000250DF10B
:100D1000080B05E0D4E901211BF8050090476D1C84
:100D20004D45F7D308F10100B0428046E4DB206A6C
:100D3000384420622046FFF7D3FBBDE8FF9F000048
:100D4000DA8700002DE9F0418046D21D22F007022B
:100D50000025D2E90002F52915A614D0011E72F172
:100D6000000106DA0023D0EB030063EB020211A6B8
:100D700008E0D8F800108B0701D50FA602E049075C
:100D800001D50EA601251146002408F1240704E030
:100D900000F0C4F830323A55641C50EA0102F7D131
:100DA0002B46324621464046BDE8F041FFF7B0BE33
:100DB000000000002D0000002B00000020000000BB
:100DC00030B4002100F1240408E002F00705D20845
:100DD000303542EA4372DB086554491C52EA030588
:100DE000F3D10468002310A2250707D5A40600D478
:100DF00021B1C46901230DA2641EC46130BCFFF798
:100E000087BE10B5044621461068FFF778FE0246FB
:100E10002046BDE810400023D2E7D21D22F0070192
:100E2000D1E90023CCE70000000000003000000002
:100E30002DE9F04791460F4680460446002614F8F7
:100E4000015B2DB100F062F80068405DC007F6D18B
:100E50002B2D02D02D2D18D0641E4A46394620462F
:100E600000F044FC27B13968A14201D1C7F80080E5
:100E70004FF0020471050BD54042002803DDFFF757
:100E800031FE0460A007BDE8F08746F48066E4E721
:100E90000028F8DAFFF726FE04606FF00040F2E762
:100EA00010B5203AC0F00B80B1E81850203AA0E805
:100EB0001850B1E81850A0E81850BFF4F5AF5FEA39
:100EC000027C24BFB1E81850A0E8185044BF18C9EC
:100ED00018C0BDE810405FEA827C24BF51F8043B93
:100EE00040F8043B08BF7047D20728BF31F8023BE7
:100EF00048BF11F8012B28BF20F8023B48BF00F87B
:100F0000012B7047004870472C5B002010B500F0A3
:100F100085FC001D10BD00BFF57B000030B5B0F1B1
:100F20000A024FEA900E71F100034EEA817EB0EBA7
:100F30000E0061EB91014FEA101E4EEA017E10EBAC
:100F40000E0041EB11114FEA102E4EEA016E10EB2C
:100F50000E0041EB11214FEA104E4EEA014E10EB0C
:100F60000E0041EB1141401841F100014FEAD00061
:100F700040EA41704FEAD10110EB80054FEA81044D
:100F800044EA907444EB01046D1944EB0404521BD1
:100F9000A3414FF0000348BF0A3200D530BD401CCA
:100FA00041F1000130BD70472DE9FF4F0C461E4650
:100FB0004FF0FF378BB0D2E90001DDF860800A9076
:100FC0008A46C1F30A5505B93D46002108464FF04F
:100FD0000000BAF1000F00F4400005DA00EB8000D9
:100FE0004FF4400101EA50004FEA9059B9F1010F66
:100FF00000DDB9460A9850EA4A000ED044F6105077
:10100000A5F2FF3545432F14B8F1000F1ED07542ED
:10101000291E1EDDC9F100021CE0B8F1010F4FF0DE
:10102000000001D0302103E0F24305E02154401CD0
:10103000B042FBDB30460022002121540B99C1F85D
:101040000880C1E900200FB0BDE8F08FBD1B6D1C0A
:10105000DEE74A4600DA694206A800F031FC06AB3A
:1010600093E8070003AB83E8070050460A9900F0B5
:10107000E3FC8DE80700A0F500501F3800900398AE
:10108000002D0ADD42F21F014A460844002303A94D
:101090000390684600F04CFF09E0A0F500504A4676
:1010A0001F38002303A90390684600F056FF8DE81F
:1010B00007000004000C03D04FF0FF30410800E0AF
:1010C0001046B8F1000F03D00022009215461EE032
:1010D000751E05D4FFF722FF303262556D1EF9D51B
:1010E000B3460122084302D000227F1C04E020788E
:1010F000302801D100227F1E002A099784D01DE0EC
:10110000112D07DAFFF70AFF303262556D1C50EAE5
:101110000102F5D1084302D00098C8B10EE00021C9
:10112000681E05E0235C625C63542254401E491C27
:101130008142F7DBAB46A81B401E0990002004F853
:101140000B000B98099AC0F80880C0E9002B7AE7D9
:1011500011264FF0000857E72DE9F04F8846044666
:10116000D21D22F0070191B0D1E90001CDE90A01B9
:1011700001F089FF02460B98C00F01D02D2007E037
:101180002068810701D52B2002E0202101EAC00060
:10119000032A099001D0072A05DB03464146204671
:1011A00000F040FB0BE12078800601D5E06900E00B
:1011B0000620B8F1650F814606D0B8F1660F18D049
:1011C000B8F1670F70D131E00020B9F1110F009034
:1011D00001DB112301E009F101030AAA01A90CA80E
:1011E000FFF7E2FEDDE90C70002609F101058346F8
:1011F00047E001204B4600904FF000470AAA01A9A2
:101200000CA8FFF7D1FEDDE90DB00C995D46002674
:1012100010B909F101000D18B9EB050003D4C0F1B4
:10122000FF3609F10105A5EB09002BE0B9F1010F2B
:1012300001DA4FF001090020B9F1110F0090484682
:1012400001DD112300E003460AAA01A90CA8FFF75B
:10125000ABFEDDE90C704D46002683462078000782
:101260000AD4AB4500DA5D4601A8012D04DD411921
:1012700011F8011C302907D04F4502DA17F1040F8D
:1012800004DA012082460FE06D1EEEE7002F02DC3B
:10129000ED1B3E4403E0781CA84200DD7D1CB81B1A
:1012A00000F1010A4FF000472078000703D4AA4557
:1012B00001DB4FF0FF3A0021B7F1004F0DF1430879
:1012C0008DF8431024D002202B23002F01DA7F4217
:1012D0002D230A21021EA0F1010000DC5FB197FB63
:1012E000F1FC97FBF1F201FB1C7C17460CF1300C72
:1012F00008F801CDEEE7A8F1010003702188090587
:1013000001D5452100E06521A0F1010800F8011C8C
:1013100009980FA9A1EB0807FF1D00B10120411991
:1013200001EBEA70A1693844081A401EA0612078D8
:10133000C00602D42046FFF7BDF8099828B1D4E9C9
:1013400001219047206A401C20622078C00622D5E7
:101350002046FFF7AFF81EE0002E04DBB34502DDA8
:1013600001A8805D00E03020D4E901219047206A87
:10137000401C2062761CAAF101005FEA000A0AD133
:1013800000F04CFAC0680168405CD4E90121904744
:10139000206A401C2062281EA5F10105DCDC07E064
:1013A000D4E9012118F8010B9047206A401C206203
:1013B000381EA7F10107F3DC2046FFF791F8032060
:1013C00011B041E62DE9F04F04460D46D21D22F042
:1013D000070089B0D0E900974846394601F053FE2E
:1013E0000246F80F01D02D2307E02068810701D5C0
:1013F0002B2302E0202101EAC0038DF820300BB13D
:10140000012000E00020032A824601D0072A04DBE5
:101410002946204600F006FA3FE12078800601D4F4
:101420000D2500E0E569C7F30A560D2D49DA0021C4
:101430004FEA175B08464FF00000002F00F4400011
:1014400007DA00EB80004FF4400100EBD07001EAB6
:1014500060008115012901DD4FF0FF3100224FEAC4
:10146000850CBCF1180F06D31346ACF118004FF0F1
:101470008052C24003E04FF4801323FA0CF30CF1C6
:101480000C0CBCF1200F04D3ACF1200C09FA0CF0C9
:1014900001E007FA0CF000294FF0004801DD18B90F
:1014A0000FE00ED140450CD319EB02095F4121B981
:1014B000404502D19F4329EA0209BBEB175F00D0E8
:1014C000761C2088000502D57B48784402E07A48E3
:1014D0007844193808AA302302F80A30037C0AF14C
:1014E0000101002E0AF1020A53546A4602DC4FF051
:1014F000300101E04FF031014FF001088DF800108C
:1015000002D0A6F2FF3603E059EA470100D06B4E45
:10151000002D02DC2178090704D54FF002082E21A6
:101520008DF80110C44600210BE0C7F303433F01CF
:10153000C35C491C6D1E02F80830052908F101083A
:1015400001DA002DF1DC00210CE000EB1973491CDD
:101550001B786D1E082902F808304FEA091908F1B6
:10156000010801DA002DF0DC21688B0602D516E0B7
:10157000A8F10108E04505DD02EB080313F8013C82
:10158000302BF5D0B8F1000F09DD02EB080313F89A
:10159000013C2E2B03D1090701D4A8F10108002D2D
:1015A00005DD3E2102F808106D1E08F10108407C9F
:1015B000002E02F8080008F1010804DA2D20764216
:1015C00002F8080002E02B2002F808000A214FF47C
:1015D0007A70864208F101080BDB96FBF0F330339A
:1015E00002F8083096FBF0F308F1010800FB1366DF
:1015F00001E0642E0CDB642096FBF0F3303302F83C
:10160000083096FBF0F308F1010800FB136601E0D7
:101610000A2E06DB96FBF1F0303002F8080008F1E4
:10162000010896FBF1F001FB1060303002F8080071
:10163000A16908F1010808EB050202EB0A00081A8B
:10164000A0612078C00602D42046FEF733FF216A4D
:1016500008AE01EB0A00206204E0D4E9012116F88B
:10166000010B9047BAF1010AF7D22078C00602D5E3
:101670002046FEF71FFF6E4609E016F8010B3E28D4
:101680000FD0D4E901219047206A401C2062B8F1B4
:101690000108F2D22046FEF723FF09B00320BDE87F
:1016A000F08F206A2844206203E0D4E90121302031
:1016B00090476D1EEBD3F8E7C17F000002FCFFFFEF
:1016C00010B5436913B1AFF3008001E0FFF7DCFA16
:1016D000012010BD128800F1240182840022C284FE
:1016E0000122EDE711684FF0FF32E9E72DE9F05FE5
:1016F000824615468B4600270AF10104B946007858
:10170000302801D09DB113E014F8010B012778288F
:1017100003D0582801D045B10AE00DB1102D07D1F2
:10172000002714F8010B102502E0082500E00A2527
:101730000026B0460EE005FB080005FB06F1012778
:101740001FFA80F801EB1046B6F5803F00D3B9468A
:1017500014F8010B294600F0A5F80028EBDABBF1DC
:10176000000F05D00FB1641E00E05446CBF80040D6
:10177000B9F1000F06D0FFF7B5F902210160C81ECC
:10178000BDE8F09F48EA0640FAE7007B00F08000E1
:10179000704770B516460C460546FFF7B7FB036861
:1017A00093F80101012806D0FF2C0FD8185D68B10D
:1017B00001202C7070BDD3F807013246214603F298
:1017C000071303442846BDE8704018474FF0FF3028
:1017D00070BD7546FFF796FBAE4605006946534659
:1017E00020F00700854618B020B5FEF701FEBDE8E1
:1017F00020404FF000064FF000074FF000084FF078
:10180000000B21F00701AC46ACE8C009ACE8C00908
:10181000ACE8C009ACE8C0098D4670470048704785
:101820004C5B00202DE9F0411F4604460326016869
:10183000072A01F4006004DB08B116A505E016A52F
:1018400003E008B115A500E015A521F01000206007
:10185000A069C01EA0610FB1401EA0612046FEF726
:1018600029FE4FB1D4E9012138469047206A401C37
:101870002062C01C206206E0206AFAE7D4E9012158
:1018800015F8010B9047761EF8D22046FEF728FE89
:10189000BDE8F0814E414E006E616E00494E46003B
:1018A000696E66003A2800D2303820F02002412AC2
:1018B00001D3A2F13700884201D34FF0FF307047C7
:1018C0002DE9F047814616468AB0354878440DC860
:1018D0008DE80D0032487844801C03AC0DC884E8C4
:1018E0000D0041F69B300844372190FBF1F290FB4C
:1018F000F1F5A5F1800501FB12041B3C02D5644201
:10190000012000E00020DFF898A080460027FA447C
:10191000AAF1BE0A0EE0E0070AD03246684607EB9D
:10192000470101230AEB810100F017FB8DE8070056
:1019300064107F1C002CEED1194F7F44AE3F19E09C
:10194000E80715D007EB04100DF1180A90E80E0017
:101950008AE80E00C068F04201D19819089032461A
:10196000012306A903A800F0F8FA03AB83E80700F7
:101970006D10641C002DE3D14FF00103324669461F
:10198000B8F1000F03A802D000F0D2FA01E000F095
:10199000E4FAC9E90001C9F808200AB0BDE8F087F7
:1019A000507C000010B50446AFF300802046BDE82F
:1019B0001040FEF7A8BC00004FF0013C50F8042B8B
:1019C00051F8043B9A4221D1A2EB0C03934313EA52
:1019D000CC1317D150F8042B51F8043B9A4215D17F
:1019E000A2EB0C03934313EACC130BD150F8042B56
:1019F00051F8043B9A4209D1A2EB0C03934313EA3A
:101A0000CC13DBD04FF00000704700BFD01A01BAF2
:101A1000B1FA81F101F0180122FA01F0CB40C1F1D5
:101A20002001DBB2C0B2C01A2CFA01F3D11A9143E3
:101A300011EAC311E6D170475FEA400C08BF91F08C
:101A4000000F4FEA8C234FEAC12243EA51514FEA7B
:101A50001C5018BF00F5F0404FEA300018BF41F0AD
:101A600000415FEA6C5C00F02980BCF1FF3F08BFD9
:101A700040F080407047130C06BF12044FF0100C6A
:101A80004FF0000C130E04BF12020CF1080C130FE0
:101A900004BF12010CF1040C930F04BF92000CF16F
:101AA000020CD30F04BF52000CF1010C11464FF091
:101AB0000002A0F11F00A0EB0C00704711F0004FD6
:101AC00008BF704731F000413FF4D5AF0B0C06BFA3
:101AD00009044FF0100C4FF0000C0B0E04BF09026C
:101AE0000CF1080C0B0F04BF09010CF1040C8B0F57
:101AF00004BF89000CF1020CCB0F04BF49000CF1AC
:101B0000010CCCF12003A0EB0C0022FA03F302FA43
:101B10000CF241EA030100F10100704720F07F4C14
:101B200080EA030023F07F47ACEB070303F57C5307
:101B300000F0004003F1FF032DE980494FEA154B07
:101B400009B44FEA144325EA0B4E24EA03480FF286
:101B5000042606EB132749083E785FEA320203FBAE
:101B60000667C7F5000707FB06F64FEA54374FEA4A
:101B7000D64606F1020607FB066CCCF1005C4FEA84
:101B80001C472CEA074C07FB06F40CFB06F504EB9C
:101B900015464FEA961634BF00204FF000404FEA3A
:101BA000D13706FB07FC4FEA1C4C0CFB0BF7D21B92
:101BB00003FB0CF761EB07010CFB0EF7B0EB0740E2
:101BC00072EB17420CFB08F734BFA2EB0742B2EBF3
:101BD000074261EB17414FEA0C444FEA910706FBBD
:101BE00007FC4FEA1C4C0CFB0BF7B0EBC74072EB49
:101BF000573203FB0CF734BFA2EBC742B2EBC7422C
:101C000061EB57310CFB0EF7B0EBC70072EB57726C
:101C10000CFB08F734BFA2EBC702B2EBC70261EBC3
:101C20005771039F4FEA816141EA921104EBCC04A2
:101C30004FEAD1374FEA826206FB07FC42EA901274
:101C40004FEA80604FEA1C4C0CFB0BF7D21B03FBE6
:101C50000CF761EB07010CFB0EF7B0EB074072EBE2
:101C600017420CFB08F734BFA2EB0742B2EB074266
:101C700061EB17414FEA8C554FEA910704EB9C2426
:101C800006FB07FC4FEA1C4C0CFB0BF7B0EBC74004
:101C900072EB573203FB0CF734BFA2EBC742B2EB37
:101CA000C74261EB57310CFB0EF7B0EBC70072EB8C
:101CB00057720CFB08F734BFA2EBC702B2EBC702A6
:101CC00061EB577115EB4C254FEA816141EA9211A6
:101CD0004FEA82624FEAD13742EA901206FB07FCD4
:101CE00044F100044FEA80604FEA1C4C0CFB0BF7F8
:101CF000D21B03FB0CF761EB07010CFB0EF7B0EBFB
:101D0000074072EB17420CFB08F734BFA2EB074207
:101D1000B2EB074261EB174115EB1C154FEA81311D
:101D200041EA92414FEA823242EA90424FEA8030E1
:101D30004FEA0C7644F1000448EA03434EEA0B48AC
:101D40004FF0000EB2EB080C71EB030724BF6246A4
:101D500039464EEB0E0E4FF0000B00185241494130
:101D60004BEB0B0BB2EB080C71EB03077BF1000B99
:101D700024BF624639464EEB0E0E4FF0000B0018A2
:101D8000524149414BEB0B0BB2EB080C71EB0307D3
:101D90007BF1000B24BF624639464EEB0E0E51EA32
:101DA000020718BF46F0010616EB0E7655F1000249
:101DB00054F1000103D5BDE88901BDE80088BDE804
:101DC0008901BDE80048B619524141EB0101A3F178
:101DD0000103704780807F7E7D7C7B7A797877767F
:101DE00076757473727171706F6E6E6D6C6C6B6AF8
:101DF0006A69686867666665646463636261616096
:101E0000605F5F5E5E5D5D5C5C5B5B5A5A59595812
:101E1000585757565655555554545353525252517C
:101E2000515050504F4F4F4E4E4D4D4D4C4C4C4BD2
:101E30004B4B4A4A4A494949484848474747474619
:101E40004646454545444444444343434342424255
:101E500042414141002B9C4630D477002BD01CB529
:101E60004FEA370703B44FF010004FF01001BAF1FA
:101E7000000F06D0BCF1000FDCBF40F0080040F0BE
:101E800008014FF000000FBCBDE810400BF1010B42
:101E9000BBF1010F08BF5FEA170722BF12F1010271
:101EA00011F101014FF0004143F1000300F0004047
:101EB00043EA00007047F9D35708D0E746EA0646E0
:101EC00013F1400F4FEA16461FDD13F1200FDFBF5D
:101ED00016430A46002120335B42BED0C3F12007DF
:101EE00046EA064602FA07F74FEA164646EA0706AA
:101EF000C3F1200722FA03F201FA07F721FA03F1EE
:101F00004FF0000342EA0702A7E746EA020646EA64
:101F100006464FEA164646EA0106BCBF46EA0646B2
:101F2000360C4FF000034FF000024FF0000194E731
:101F30002DE9804C9A46934670B491E8380007C862
:101F400031EA400C48BF34EA430C03D5FFF7E6FD05
:101F5000FFF780FFF0BCBDE8008C2DE9804C9A466D
:101F6000934670B491E8380007C810F0804F08BF5E
:101F700013F0804F03D100F005F8FFF76BFFF0BCC2
:101F8000BDE8008C20F07F4780EA030023F07F4CFF
:101F900007EB0C03A3F57C5300F00040A3F1FE0314
:101FA00092F0000F00F0B38095F0000F00F0778002
:101FB0002DE901494FEA11404FEA144621EA004851
:101FC00000FB06FC24EA064708FB06F607FB08F8B8
:101FD00000FB07F718EB06484CEB164C4FEA124B88
:101FE00018EB07484FEA15464CEB174022EA0B4E18
:101FF0000BFB06FC25EA06470EFB06F607FB0EFE6A
:102000000BFB07F71EEB064E4CEB164C4FF0000691
:102010001EEB074E4CEB174B18EB0B0840F1000082
:1020200018EB0E0B58EB000840F100008F1A4FF030
:1020300000013CBFC943661B14BFB5EB040C002173
:102040003CBFC943F61B4FEA17444EEA8E0E27EAFF
:1020500004454FEA1C4704FB07622CEA074C05FBCA
:1020600007F70CFB05F604FB0CFC16EB074642EBEE
:10207000174216EB0C4642EB1C421BEB060658EBD4
:102080000202414146EA9E0601D5BDE80189B61922
:10209000524141EB0101A3F10103BDE801894FEA7F
:1020A00014454FEA114724EA054621EA074C05FB8F
:1020B00007F406FB07F70CFB06F105FB0CFC11EB24
:1020C000074144EB17444FEA124711EB0C4144EB34
:1020D0001C4422EA074C05FB07F206FB07F70CFB42
:1020E00006F605FB0CFC16EB074642EB174216EB17
:1020F0000C4642EB1C456A1854F1000148BF70477A
:10210000B619524141EB0101A3F10103704795F06B
:10211000000F37D04FEA11424FEA144721EA024636
:1021200024EA074C02FB07F106FB07F70CFB06F459
:1021300002FB0CFC14EB074441EB17414FEA154737
:1021400014EB0C4441EB1C4125EA074C02FB07F55C
:1021500006FB07F70CFB06F602FB0CFC16EB07462A
:1021600045EB174516EB0C4645EB1C42121951F195
:10217000000148BF7047B619524141EB0101A3F17C
:10218000010370474FEA14454FEA114724EA054618
:1021900021EA074C05FB07F106FB07F70CFB06F2EB
:1021A0004FF0000605FB0CFC12EB074241EB174118
:1021B00012EB0C4251EB1C4148BF7047921841EBA7
:1021C0000101A3F101037047FEE7000070B5092586
:1021D000044E002406EB041000F08CF9641CAC42A1
:1021E000F8D370BD988B0008704700002DE9F041CE
:1021F000ADF5805D4FF480556C4629462046FEF7CC
:102200001BFC04F085FC0646002029462054401C97
:10221000A842FAD30A46304604F092FB316808B16E
:1022200030A058E02B461A463748FEF721F92A46D7
:1022300023461146304604F045FE316808B133A00C
:1022400049E02B461A463A48FEF712F92A46A046BC
:1022500023461146304604F0EFFC316828B135A022
:10226000FEF706F9002440462FE02B461A463A486E
:10227000FEF7FEF839A0FEF7FBF800246F1E14E00D
:10228000200703D1291945A0FEF7F2F818F8041029
:1022900044A0FEF7EDF82007B0F1704F01D0BC422A
:1022A00002D142A0FEF7E4F8641CAC42E8D33FA0A0
:1022B000FEF7DEF8D6E7015DE2B2914204D03C4879
:1022C0003168FEF7D5F802E0641CAC42F3D3AC42AF
:1022D00003D138A03168FEF7CBF80DF5805DBDE87D
:1022E000F081000045726173652074686520257374
:1022F00020666C6173682064617461206661696C3A
:1023000065642E0D0A0000008495000857726974F8
:10231000652074686520257320666C61736820648D
:10232000617461206661696C65642E0D0A000000AD
:10233000C895000852656164207468652025732083
:10234000666C6173682064617461206661696C65A4
:10235000642E0D0A000000000C9600084F6666739C
:102360006574202868292030302030312030322018
:102370003033203034203035203036203037203094
:102380003820303920304120304220304320304442
:102390002030452030460D0A000000005B25303813
:1023A000585D200025303258200000000D0A000042
:1023B0003895000854686520257320666C61736841
:1023C0002074657374206973207375636365737318
:1023D0002E0D0A00004870477053002030B50023CE
:1023E0001D46136019E0401C0478C4B1202CFAD1BA
:1023F00010F8014F9CB1202CFAD05B1C8B420CD101
:1024000005461168491C116010F8011F09B1202907
:10241000F7D1106818B9002501E08B42E4D32846B3
:1024200030BD00002DE9F0472F4E054691467068FB
:102430008A4601244FF00008A0BB06F10C0010E012
:10244000006807683846FEF712FA0246A85C2028A2
:1024500000D020B939462846FEF728FA28B170681E
:10246000406870600028EBD134E0D6F804C0DCF896
:10247000000090F90C70002F10DB00202A46014666
:1024800003E0202B18D00021521C1378002BF8D128
:1024900009B1401E40B2B84200D00024BCF1000F88
:1024A00018D07CB170682A46494600688368504657
:1024B000984704000BD013E00029E5D1401C40B23E
:1024C0000121E1E74A4609495046FEF7DCFAC6F821
:1024D000048005E04A4606495046FEF7D4FA002437
:1024E0002046BDE8F0870000CC000020A896000838
:1024F0000097000870B5050011D0082003F044FCD7
:10250000040014D004F0AEFF0020C4E900500C48D1
:1025100001684C60046004F0C5FF012070BD5020CC
:1025200080F31188BFF34F8FBFF36F8FFEE750200A
:1025300080F31188BFF34F8FBFF36F8FFEE700006A
:10254000CC000020F0B5002201274FF0030C0B68EF
:1025500007FA02F52B40AB422CD1066853000CFA67
:1025600003F4A64306600E79D0F800E09E4046EAE8
:102570000E0606600E79012E01D0022E12D1866859
:10258000A64386604E79D0F808E09E4046EA0E06E3
:1025900086604668AE43466045688E799640B6B21E
:1025A00035434560C568A543C560CC799C40C36888
:1025B0001C43C460521C102AC9D3F0BD4B07DB0E6C
:1025C0009A40C90810B500EB8100016A0F249C40B5
:1025D000A1430162016A1143016210BD418370474A
:1025E00001837047114906A300201A5C8A800A887B
:1025F0005206FCD5401CC0B22A28F6D3FEE70000E4
:102600000D0A456E74657220486172644661756C8E
:10261000745F48616E646C65722C205379737465C5
:102620006D2048616C742E0D0A00000000100140FE
:10263000FEB0002001F094FA50B101280CD002281D
:1026400024D0032825D0042826D016A0FDF710FF9B
:10265000142004F0EDFFECE716A0FDF709FF22A01F
:10266000FDF706FF684605F0F9F869462AA0FDF770
:10267000FFFE2BA0FDF7FCFE684605F095F86946C5
:1026800025A0FDF7F5FE04F099FDE1E7FFF7AEFDAB
:10269000DEE701F0FDFDDBE72CA0FDF7E9FE00F031
:1026A0001FF9D5E74B45595F64656661756C740D1C
:1026B0000A0000003D3D3D3D3D3D3D3D3D3D3D3D34
:1026C0003D3D3D3D3D3D3D3D3D3D3D3D3D3D3D3D3A
:1026D0003D3D3D3D3D3D3D3D3D3D3D3D3D3D3D3D2A
:1026E0003D3D3D3D3D0D0A00C8CECEF1C3FB20204F
:1026F00020202020C8CECEF1D7B4CCAC20D3C5CF7B
:10270000C8BCB6202020CAA3D3E0D5BB20C8CECEFB
:10271000F1D0F2BAC50D0A0025730D0A00000000C1
:102720000D0AC8CECEF1C3FB20202020202020D4CB
:10273000CBD0D0BCC6CAFD202020202020202020C5
:10274000CAB9D3C3C2CA0D0A000000004B45595F85
:10275000444F574E5F4B340D0A000000FEE77047B0
:1027600030B50F23C27801780125FAB1144A1268F6
:1027700001F1E02102F4E062C2F5E062C2F3072257
:10278000C2F10404D3404278A24084781C40144330
:10279000220181F80024007800F01F018D404009DB
:1027A000800000F1E020C0F8005130BD01F01F00B2
:1027B00085404809800000F1E020C0F8805130BD1C
:1027C0000CED00E002490843024908607047000030
:1027D0000000FA050CED00E0044A0029116801D060
:1027E000014300E08143116070470000303802402F
:1027F000044A0029116801D0014300E081431160BF
:102800007047000040380240044A0029116801D096
:10281000014300E08143116070470000203802400E
:10282000044A0029116801D0014300E0814311608E
:102830007047000044380240044A0029116801D062
:10284000014300E0814311607047000024380240DA
:1028500070B5204B1968204C11F00C0104D06610A3
:10286000042903D0082903D004601BE0066019E0A6
:10287000184A121F1168C1F38055116801F03F0119
:1028800015B1B6FBF1F101E0B4FBF1F11468126887
:10289000C4F388146143C2F30142521C5200B1FBDD
:1028A000F2F1016019680F2202EA11110B4A545C1F
:1028B0000168E14041601C68072505EA9424145D25
:1028C00021FA04F484601B6805EA5333D25CD140DA
:1028D000C16070BD083802400024F4003D000020B3
:1028E00010B501F0B9FA002804D1BDE8104002A0EB
:1028F000FDF7BEBD10BD0000526573746F72654474
:10290000656661756C7453657474696E6720737560
:1029100063636573730D0A000029018802D041F4D6
:10292000005101E021F40051018070470029018825
:1029300002D041F0400101E021F0400101807047E8
:102940001A4910B5884202D10121841424E01849A3
:10295000884202D10121041404E0164988420AD1B8
:102960000121C4132046FFF74FFF2046BDE8104069
:102970000021FFF749BF1049884202D101214414C8
:102980000AE00E49884202D101210C0504E00C49FD
:1029900088420AD101214C052046FFF74DFF204611
:1029A000BDE810400021FFF747BF10BD00300140D7
:1029B00000380040003C004000340140005001401D
:1029C000005401400246002012890A4200D0012032
:1029D0007047808970478181704730B502884C8884
:1029E00002F441530A88CD8822438C882C43224329
:1029F0000C8922434C8922438C892243CC8922436F
:102A00001A430280828B22F400628283098A018247
:102A100030BD00000CB500222749009201920868E1
:102A200040F4803008604FF4A043086800F40030A0
:102A300001900098401C0090019810B900989842AD
:102A4000F3D10868800334D5012001901A48403042
:102A5000026842F0805202601848026842F4404224
:102A600002601548083002680260026842F40042C1
:102A70000260026842F4A0520260031F104A1A600A
:102A80000A6842F080720A600A689201FCD50D491A
:102A900040F205720A60016821F0030101600168DB
:102AA00041F0020101600168C1F381010229FAD1FC
:102AB0000CBD01920CBD00000038024000700040C7
:102AC00008544007003C02404FF0E0210428086908
:102AD00003D020F004000861704740F00400FAE7DA
:102AE00010B505F015FE012803D0BDE8104005F033
:102AF000C7B910BD124810B5016841F470010160FA
:102B00001048016841F0010101600E4A00210832BD
:102B1000116002680C4B1A400260031D0B4A1A60D8
:102B2000026822F48022026006480C300160FFF740
:102B300071FF03494FF000608039086010BD00004C
:102B400088ED00E000380240FFFFF6FE1030002460
:102B500010B5094C0121204600F029F8002809D0C1
:102B600006490A68521C0A602046BDE8104001214F
:102B700000F010B810BD000000100040340000202C
:102B80000029018802D041F0800101E021F080019C
:102B900001807047C943018270470029018802D033
:102BA00041F0010101E021F001010180704702467E
:102BB0000020138A92890B4202EA010202D0002A05
:102BC00000D001207047002A828901D00A4300E02A
:102BD0008A4382817047000030B50288164C174D39
:102BE000A0420DD0A8420BD0B0F1804F08D0144BBA
:102BF000984205D0134B984202D0134B984203D110
:102C000022F070034A881A43104B984206D0104BAA
:102C1000984203D022F440730A891A4302804A681A
:102C2000C2620A880285A04201D0A84201D1897AF5
:102C300001860121818230BD000001400004014075
:102C40000004004000080040000C0040001000405C
:102C5000001400400FB42DE9F0478AB013AD4FF0D7
:102C60002D0AE946C4E0002400E0641C015D25292A
:102C700001D00029F9D1A1B200F02EFF1298204412
:102C800012900178252973D1401C0024202612902F
:102C9000129911F8010B129138282AD014DC33282C
:102CA00027D008DC25287DD0302822D0312820D01C
:102CB00032281BD11DE034281BD0352819D03628E6
:102CC00017D0372812D114E0702849D008DC3928F1
:102CD0000FD0582844D0632817D0642806D119E0B3
:102CE000732823D0752836D0782839D0052145A0FF
:102CF0007CE011F8010C302801D104B9302604EB36
:102D00008401490030394418C2E701CD08900121FF
:102D100008A86BE002CD00200891002903DA49429F
:102D20000123089100E000230A221EE001CD0026C5
:102D300000E0761C815D0029FBD1B1B200F0CCFE31
:102D4000B44255D9A41B03E0012130A000F0C4FE19
:102D5000641E4DD3F8E701CD089000200A2203E05D
:102D600001CD08900020102200230121089F02E0DD
:102D70003EE06146641E01FB02FCBC4503D8BCFB7F
:102D8000F2F88845F5D033B1641E302E03D109F82E
:102D900000A00023401CA4F1020CBCF10E0F09D2CC
:102DA000641E00E01FE005D0CC460CF80060401C1B
:102DB000641EFAD113B109F800A0401C144E4C4611
:102DC00071B1B7FBF1F3B3FBF2FC02FB1C33D6F895
:102DD00000C0B1FBF2F11CF803302354401CEFE7B4
:102DE00081B2684602E012980121401E00F074FE94
:102DF0001298017800297FF436AF0AB0BDE8F007D9
:102E00005DF814FB4552524F5200000020000000B4
:102E1000788B000870B51E4C40F225552946204697
:102E200000F09AF808B3204600F024F9194AC0B21D
:102E30005688138800215B1E9E4214D0138813B954
:102E400053887F2B0FD0144B568898555088401CC0
:102E500050805088802800D3518029462046BDE804
:102E6000704000F062B81180F6E74FF45A752946B9
:102E7000204600F071F8002808D02946204600F0CE
:102E80006BF82046BDE8704000F0F4B870BD00005B
:102E9000001001402C0000205C0100207CB50020C7
:102EA0001D4D40F2277600903146284600F054F838
:102EB0001A4C01280BD16A4601A9606805F022FA74
:102EC00001280CD000223146284600F064F840F278
:102ED0002551284600F040F8012806D010E09DF862
:102EE0000410284600F0CAF8F1E7284600F0C2F8BE
:102EF0008DF8040000236A4601A9206805F008F94E
:102F00000098002807D006494FF080500860BFF3B2
:102F10004F8FBFF36F8F7CBD00440040E80000205E
:102F200004ED00E0C943018070470A0A0121914085
:102F3000C943018070470029818902D041F40051C2
:102F400001E021F40051818170470246002012887F
:102F50000A4200D00120704770B501F01F0501261C
:102F60000024C1F3421306FA05F2012B0FD0022B05
:102F70000FD0838A4FEA11210088134206FA01F626
:102F800000EA060001D000B10124204670BD83890B
:102F9000F0E7038AEEE710B5C1F3421301F01F0416
:102FA0000121A140012B07D0022B07D01430002AA9
:102FB000026805D00A4304E00C30F8E71030F6E769
:102FC0008A43026010BD00007FB50446008A0D46AA
:102FD000C98820F4405001432182A08941F20C614C
:102FE0008843A9882A8911436A8902431143A18130
:102FF000A08A20F44071A8890843A0826846FFF7A0
:1030000027FC1A48844202D01948844201D103980F
:1030100000E00298A189090400EBC00101EB001057
:10302000296801D5490000E08900B0FBF1F0642275
:10303000B0FBF2F109010B096FF018056B4300EBCF
:103040008300A3891D044FF0320306D503EBC000B3
:10305000B0FBF2F000F0070005E003EB0010B0FB5E
:10306000F2F000F00F00084320817FBD0010014006
:10307000001401408088C0F308007047C1F30801C4
:1030800081807047FEE703B401984100009850EA40
:10309000C12018BF04204A0D18BF40F0010040F2C3
:1030A000FF72B2EB515F08BF40F00200012808BF79
:1030B000052002B0704730380A2801D2012070473D
:1030C00000207047704700002DE9FE4F5FEA0008BE
:1030D0004E481C4616460F4608F120094FF0010ADB
:1030E0000ED098F83410002913D0D8F81000B91970
:1030F000814217D946A003F083FD0520BDE8FE8F6D
:1031000000904DA34EA240F2B92155A003F056FD08
:10311000FEE700905AA34AA240F2BA2150A003F061
:103120004DFDFEE7D9F80810484601B18847F80779
:103130000CD02046394601230090641C7F1C1A469F
:10314000404601F087FD050054D1761E012140461E
:1031500003F07AFA05004DD1AD208DF804000DF191
:10316000040B34E0BAF1000F13D05D466A1C3946F7
:10317000404601F049FC98F8350008B1052200E00E
:1031800004222078A854A918607848704FF0000AEB
:1031900006E020788DF80500607801228DF80600A1
:1031A000002000900023D9F80450484601A9921C41
:1031B000A847050003D036A003F022FD1AE04046E0
:1031C00004F018FD050015D1A41CB61EBF1C022E6C
:1031D000C8D20021404603F037FA05000AD1012E7B
:1031E0000CD101231A4639464046009401F032FDC5
:1031F000050003D00021404603F026FAD9F80C1050
:10320000484601B18847284678E70000A18E0008AB
:103210004572726F723A20466C6173682061646413
:1032200072657373206973206F7574206F662062F6
:103230006F756E642E0D0A00666C61736800000085
:103240002825732920686173206173736572742067
:103250006661696C65642061742025732E0D0A0017
:103260002E2E5C324C6F774C617965725C464C4116
:1032700053485C7372635C736675642E6300000070
:10328000666C6173682D3E696E69745F6F6B0000D8
:103290004572726F723A20466C617368207772696A
:1032A00074652053504920636F6D6D756E6963615D
:1032B0007465206572726F722E0D0A00F8B514469F
:1032C0000D46064668460121FF22FDF78BFB22468C
:1032D0002946304600F0B8FFF8BD0000F3B585B0D0
:1032E000054600214FF0FF300291CDE90310184848
:1032F000CDE9000103AB02AA284603F07CF8154E85
:103300000398012438B1CDE9006404AB06AA022178
:10331000284603F070F80299B9B10498401C14D102
:10332000012902D80C4F787840B1CDE9006404AB94
:1033300006AA0121284603F05EF806E007A240F243
:10334000DA2112A000F0C6FE7C70049807B0F0BD30
:103350004D640008B53300084801002054726967C5
:10336000676572206120474320636865636B206155
:103370006674657220616C6C6F6320454E562066E2
:1033800061696C65642E0D0A000000002E2E5C330E
:103390004D6964646C654C617965725C65617379D3
:1033A000666C6173685C7372635C65665F656E769C
:1033B0002E63000003785BB1036909688B4207D96B
:1033C0008178012906D0022902D10449497809B13E
:1033D00000207047406910600120704748010020BC
:1033E00038B504460178407809B1032802D0012895
:1033F0001AD017E0A17804F10C020F4800F092FEF9
:10340000204601F057FB38B10C4A40F246510CA05F
:10341000636800F05FFE0DE013A240F2445108A083
:1034200000F058FE002038BD052306226946E06AF8
:1034300004F046FC012038BD409E0008DC9E0008D8
:103440002E2E5C334D6964646C654C617965725CE9
:1034500065617379666C6173685C7372635C6566E1
:103460005F656E762E6300005265636F76657279D4
:103470002074686520454E562073756363657373C9
:1034800066756C2E0D0A000010B5017819B18078B0
:1034900003280BD00FE009A000F044FE00F064FE0A
:1034A00000F0DAFC00F05EFE012010BD12490120A0
:1034B000487001F049F8002010BD00005761726E9D
:1034C000696E673A20536563746F72206865616442
:1034D000657220636865636B206661696C65642E44
:1034E0002053657420697420746F2064656661756B
:1034F0006C742E0D0A000000480100202DE9F041F7
:1035000088B0044600208DF814001F4690460E46F1
:1035100008466569FDF7ABF9202807D9202148A0A6
:1035200000F000FE042008B0BDE8F081FF22142165
:103530006846FDF757FA3046FDF799F9C0B28DF8A5
:103540000C003844143004970190B0F57F6F04D913
:1035500047A000F0E7FD0620E5E7681C06D12046FD
:10356000019901F03FFB0546401C65D005AA2046A5
:10357000019903F0B3FE04005FD1FF208DF818001D
:103580000822002003A900F0BDFB02909DF80C204A
:10359000314600F0B7FB029005E0012206A902982F
:1035A00000F0B0FB0290641EF7D24146049A0298E4
:1035B00000F0A8FB0024029005E0012206A9029871
:1035C00000F0A0FB0290641EF7D26C460123062295
:1035D0002146284604F074FB20B91022211D281D25
:1035E00000F032FE040028D1314605F114009DF8A8
:1035F0000C200646FFF762FE04001ED19DF80C0069
:1036000041463044049AFFF759FE040015D10223C5
:1036100006226946284604F053FB04000DD19DF8AC
:10362000140040B11BA24FF47B7124A000F052FDA6
:103630002C490120487000E00624204673E7000072
:103640004572726F723A2054686520454E56206E5E
:10365000616D65206C656E677468206973206D6F9D
:103660007265207468616E2025640D0A00000000F8
:103670004572726F723A2054686520454E56207329
:10368000697A6520697320746F6F206269670D0A1B
:10369000000000005472696767657220612047432B
:1036A00020636865636B2061667465722063726570
:1036B0006174656420454E562E0D0A002E2E5C3333
:1036C0004D6964646C654C617965725C65617379A0
:1036D000666C6173685C7372635C65665F656E7669
:1036E0002E6300004801002070B58EB015460C0016
:1036F000064604D1694600F081FE88B16C46E06A56
:10370000C5B1042306220DA904F0DAFA0500E06A27
:103710004FEA10344FEA043404F101040CD019E0EC
:1037200033460DA240F2F32112A000F0D3FC042096
:103730000EB070BD0323E5E704220DA9204602F078
:1037400083FD012806D1022304220DA9204604F09E
:10375000B7FA05462846EBE74E6F7420666F756E24
:1037600064202725732720696E20454E562E0D0AAA
:10377000000000002E2E5C334D6964646C654C6162
:103780007965725C65617379666C6173685C73728C
:10379000635C65665F656E762E63000010B5044657
:1037A0000420FFF791F90A484FF47A71047014FB72
:1037B00001F1012242804FF0E020026942F0020252
:1037C00002614161016941F00101016110BD000028
:1037D0002800002070B5044604F09AFF01280CD0A0
:1037E000094D6888844203D3B4FBF0F003F020FF56
:1037F0006888B4FBF0F100FB11444FF47A70604329
:10380000BDE8704000F002B82800002070B54FF00D
:10381000E02500216C69094AAB6912785043AA6916
:103820009A42FCD002D2A3EB020302E0A4EB020610
:103830003344194413468142F1D370BD280000205F
:10384000F0B5044600788FB000283CD0A07802285C
:1038500001D0032837D16068032304220EA9401C3D
:1038600004F02EFA4FF0FF3604AD40F275370C9697
:1038700017E001A802F016FB9DF8040088B19DF83E
:103880000500022801D003280BD101A801F012F98C
:1038900038B100959DF806300CA2394617A000F00B
:1038A00019FC01A9204600F0ABFE0C90401CE0D1B1
:1038B0003146606800F0CEFD1AA240F27A310FA0C6
:1038C000636800F007FC0FB00020F0BD4572726F16
:1038D000723A204D6F7665642074686520454E56B7
:1038E0002028252E2A732920666F722047432066E0
:1038F00061696C65642E0D0A000000002E2E5C3399
:103900004D6964646C654C617965725C656173795D
:10391000666C6173685C7372635C65665F656E7626
:103920002E630000436F6C6C6563742061207365C7
:1039300063746F7220403078253038580D0A0000CB
:103940007CB501212020FEF747FF01208DF80400FF
:1039500000228DF8062003218DF80510074D4FF445
:10396000C0648DF80700009469462846FEF7EAFD1A
:1039700021462846FEF734FE7CBD000000140240BC
:103980007FB501211020FEF733FF184818490024A5
:103990000068184D4008B0FBF1F0401E0190632014
:1039A000ADF80000ADF80240ADF808406946284681
:1039B000FFF712F901212846FFF7E2F8012211462C
:1039C0002846FFF700F901212846FFF7E6F83620E0
:1039D0008DF80C0002208DF80D008DF80E400120AE
:1039E0008DF80F0003A8FEF7BBFE7FBD140000207A
:1039F000400D030000100040F0B50646012187B0DD
:103A00000846FEF7E9FE01211020FEF709FF234DCD
:103A1000072209212846FEF7D1FD07220A21284660
:103A2000FEF7CCFD02218DF814108DF815104FF41F
:103A3000C060002404908DF8164001278DF817709F
:103A400004A92846FEF77EFDADF80440ADF8064017
:103A5000ADF80840ADF80C400C20114CADF80A0050
:103A6000009669462046FFF7AFFA25208DF818002A
:103A700003218DF819108DF81A108DF81B7006A807
:103A8000FEF76EFE012240F225512046FFF783FA31
:103A900001212046FFF74FFA07B0F0BD00000240B9
:103AA000001001400A490A884B889A4201D100203F
:103AB0007047084A0B88D25C02700888401C088056
:103AC0000888802801D3002008800120704700006A
:103AD0002C0000205C01002070B50C46054605E076
:103AE000287800F007F8641EA4B26D1C002CF7D1F2
:103AF00070BD000010B5084C01462046FFF7BEFA25
:103B000080212046FFF721FA0028F9D02046BDE8A1
:103B100010408021FFF706BA001001401CB50121BA
:103B20001120FEF759FE1C20009000208DF80400A3
:103B300003208DF8050001248DF8074069460648EA
:103B4000FEF700FD02208DF8070000946946034847
:103B5000FEF7F8FC1CBD000000100240000002400F
:103B600070B5224C224E234D012108B1217001E095
:103B7000207860B1D5F8100270B1D5F80C0258B1B8
:103B8000D5F8080240B1D6F80002012804D0D5F8D3
:103B9000100201281BD026E00A20FFF71BFE0020A0
:103BA0002070D5F8100250B1D5F80C0248B1D5F804
:103BB000080240B1D6F80002012806D013E0012027
:103BC00070BD022070BD032070BD042070BDD5F80B
:103BD0000C02012807D1D5F80802012803D1D6F834
:103BE000000200B92170002070BD00003C000020E0
:103BF00000004042000042422DE9F041040006D09E
:103C0000184E306884420AD10020BDE8F08150206F
:103C100080F31188BFF34F8FBFF36F8FFEE703F080
:103C200021FC6569F76B366C03F03CFCBD4201D0AA
:103C3000B54201D10220E8E70B48854208D1A06ACD
:103C40000028F7D194F858000128F3D00320DCE7CE
:103C500005481438854202D00DB10120D5E7042073
:103C6000D3E7000050000020340300201CB50020E2
:103C70000090694601A800F0CBFA040009D1DDE903
:103C8000001000F07BF8040003D100F0E7F9040015
:103C900008D006A107A000F045FA0F4800F042FA4C
:103CA00020461CBD01A10DA0F5E70000342E302EEA
:103CB0003000000045617379466C617368205625B9
:103CC0007320697320696E697469616C697A652013
:103CD0006661696C2E0D0A00F89C000845617379D5
:103CE000466C6173682056257320697320696E697C
:103CF0007469616C697A6520737563636573732E8B
:103D00000D0A000010B5C043064C07E011F8013B56
:103D10004340DBB254F8233083EA1020521EF5D220
:103D2000C04310BD388F00080A4910B50978044611
:103D300059B100F017FA012200212046FFF7D4FC08
:103D4000044600F011FA204610BD03A000F0EAF985
:103D5000072010BD480100204572726F723A20455D
:103D60004E562069736E277420696E697469616CA0
:103D7000697A65204F4B2E0D0A00000038B520B13E
:103D8000114C22785AB1002038BD1048009010A381
:103D900012A240F27E5119A000F09CF9FEE7002229
:103DA0006260C4E902104FF48030134600901DA2F7
:103DB00040F28F5111A000F08DF900F065F9002854
:103DC000E2D10121217038BD480100202F94000864
:103DD00064656661756C745F656E7600282573296D
:103DE0002068617320617373657274206661696C09
:103DF00065642061742025732E0D0A002E2E5C331D
:103E00004D6964646C654C617965725C6561737958
:103E1000666C6173685C7372635C65665F656E7621
:103E20002E630000454E56207374617274206164E5
:103E30006472657373206973203078253038582C8C
:103E40002073697A6520697320256420627974651E
:103E5000732E0D0A000000002DE9F041274E28487E
:103E600088B0F168002539B1B16871B100F07AF914
:103E70004FF0FF38746819E0009022A325A240F2A9
:103E800097412CA000F026F9FEE7009033A321A271
:103E90004FF4936127A000F01DF9FEE7414620464C
:103EA00000F0D8FA050023D104F58054706800F5BD
:103EB00080308442F2D3002417E0F06804EB44071A
:103EC00000EB870083681BB94068FCF7D0FC034611
:103ED000CDF81880F06800EB87014A6850F8271089
:103EE00001A8FFF70BFB1DB9641CB0688442E4D342
:103EF00000F03AF908B02846BDE8F08148010020FA
:103F00001C94000864656661756C745F656E765F0D
:103F100073657400282573292068617320617373A9
:103F2000657274206661696C656420617420257314
:103F30002E0D0A002E2E5C334D6964646C654C6155
:103F40007965725C65617379666C6173685C7372C4
:103F5000635C65665F656E762E630000646566610E
:103F6000756C745F656E765F7365745F73697A658F
:103F70000000000010B5002380220A4900F034F848
:103F8000041E08D00146074800F070F820B105492A
:103F900000200855084610BD03A000F0C3F800201B
:103FA00010BD00005C5A00205761726E696E673A5E
:103FB0002054686520454E562076616C75652069F1
:103FC000736E277420737472696E672E20436F7549
:103FD0006C64206E6F742062652072657475726EF9
:103FE00065640D0A00000000F0B5044613488DB06A
:103FF0001E46007815460F4678B100F0B3F820460B
:104000000024694600F0FAF998B10EB102983060C8
:104010000298A84207D2044606E009A000F082F800
:1040200000200DB0F0BD2C46224639460C9800F019
:10403000FBF800F099F82046F3E700004801002063
:10404000454E562069736E277420696E69746961E4
:104050006C697A65204F4B2E0D0A000002494FF41F
:10406000803200200A60704758010020002206E0DC
:10407000835C203B5F2B01D300207047521C8A4297
:10408000F6D301207047000030B595B0002500F050
:1040900069F800210C48CDE900010B460A460FA83B
:1040A00002F0A9F9094C0022094B114602A800F0C0
:1040B00073F9617811B100F047FAF4E700F054F8B1
:1040C00015B0284630BD00008934000848010020A2
:1040D000E13300080FB40A4610B5014605AC09A04B
:1040E00000F0C4F822460C480499FCF795F90A49F7
:1040F0000AA000F0BBF80AA0FCF7BAF910BC5DF802
:1041000014FB00005B466C6173685D2825733A25DB
:104110006C64292000000000D9590020257300009C
:104120000D0000000FB40AA010B503AC00F09EF81B
:10413000224609480299FCF76FF9074907A000F0E9
:1041400095F807A0FCF794F910BC5DF814FB00008B
:104150005B466C6173685D00D959002025730000CF
:104160000D00000072B6704762B67047F8B50E4693
:104170000546002402F0CCFC290508D00848009030
:1041800008A310A2732117A0FFF7A4FFFEE7324691
:10419000294602F0D5FB00B101242046F8BD0000FD
:1041A000C89300086164647220252045465F45522B
:1041B0004153455F4D494E5F53495A45203D3D208F
:1041C0003000000028257329206861732061737313
:1041D000657274206661696C656420617420257362
:1041E0002E0D0A002E2E5C334D6964646C654C61A3
:1041F0007965725C65617379666C6173685C706F18
:1042000072745C65665F706F72742E6300000000EC
:1042100010B5044A02600C200024086002F07CFC07
:10422000204610BD389300082DE9F04117460D4691
:104230000646002402F06CFC2B463A46314602F05A
:10424000FBFC2046BDE8F0812DE9F04117460D4604
:104250000646002402F05CFC2B463A46314602F04A
:1042600031FE00B103242046BDE8F0810FB410B543
:1042700003AA05480299FCF7CFF8034903A0FCF70D
:10428000F7F810BC5DF814FBD95900202573000025
:1042900000B58FB000200D900E480078A8B1FFF750
:1042A00061FF0D4B00220DA9684600F075F80BA0C8
:1042B000FFF7DCFF0D994FF470420FA0F031FFF7CC
:1042C000D5FFFFF751FF0FB000BD11A0FFF72AFF88
:1042D000F9E70000480100206D4E00080A6D6F6488
:1042E000653A206E6578742067656E6572617469E1
:1042F0006F6E0D0A0000000073697A653A20256C24
:10430000752F256C752062797465732E0D0A000077
:10431000454E562069736E277420696E6974696111
:104320006C697A65204F4B2E0D0A000070B505466A
:104330000C460846FCF79BFA024621462846BDE893
:10434000704000F001B8000070B50B4B06461446F3
:1043500018780D4658B1FFF705FF2246294630462A
:1043600002F018F90446FFF7FFFE204670BD03A0D7
:10437000FFF7D8FE072070BD48010020454E5620AB
:1043800069736E277420696E697469616C697A65F6
:10439000204F4B2E0D0A00002DE9F04186B04FF062
:1043A000FF361D4617468846044601961DE000224A
:1043B000694601F085FEC0B9BDB19DF80100022833
:1043C00001D0032811D1E66208E0204601F06AFD21
:1043D0003A4641462046A84700280BD12146684668
:1043E00000F00EF9E062401CEFD1684600F028F9B9
:1043F000411CDCD106B0BDE8F081000038B50C46A8
:1044000000228DF800200146034B6A462046FFF744
:10441000C3FF9DF8000038BD1D44000870B5044678
:1044200015460E460846FCF722FAC2B2A078904222
:1044300000D90246207840B16078022805D1314683
:1044400004F10C00FCF732FA08B1002070BD012025
:10445000287070BD30B5054685B00C46000509D002
:104460001648009016A31CA240F26D2122A0FFF76F
:1044700031FEFEE74FF480512846FFF777FE002813
:104480001AD1FF22102101A8FCF7ACFA0122042165
:1044900001A802F0C3F8012204210DF1050002F089
:1044A000BDF81F48CDE902044FF0FF300490102200
:1044B00001A92846FFF7C8FE05B030BD0E940008DC
:1044C00061646472202520534543544F525F534921
:1044D0005A45203D3D20300028257329206861730E
:1044E00020617373657274206661696C6564206114
:1044F000742025732E0D0A002E2E5C334D696464E2
:104500006C654C617965725C65617379666C617329
:10451000685C7372635C65665F656E762E6300002F
:104520004546343003490A885206FCD5C2B28A8017
:104530007047000000100140007810B10868401C6E
:10454000086000207047000010B58AB000241148B0
:10455000CDE90004234608AA0121089402A801F02D
:104560004AFF012000900CA240F28E3118A0089B57
:10457000FFF7B0FD0898012808D81F48CDE90004CE
:1045800000231A46194602A801F035FF1B48447063
:104590000AB010BD394500085468652072656D6128
:1045A000696E20656D70747920736563746F722015
:1045B00069732025642C20474320746872657368F2
:1045C0006F6C642069732025642E0D0A00000000C2
:1045D0002E2E5C334D6964646C654C617965725C48
:1045E00065617379666C6173685C7372635C656640
:1045F0005F656E762E630000413800084801002098
:1046000038B542784FF0FF35012A17D0CA6A531CDB
:1046100011D0436803F580539A420FD848681418A4
:10462000A3420BD350B106226946204601F00CFE8E
:1046300020B1204638BD44681034F4E7284638BD20
:104640000B49024640684968431C0BD0D268531C92
:104650000AD000EB023001F58031884201D34FF0DF
:10466000FF3070470846704700F58050F3E70000C0
:104670004801002070B5491E00220C46802309E045
:1046800000EBD10501F007062D7823FA06F6354236
:1046900002D0521C491EF3D2A01A70BD2DE9FC4174
:1046A00000681A4988422FD13820009002208DF8E6
:1046B000040000258DF806500326154F8DF805607F
:1046C00001248DF8074069463846FDF73BFF052277
:1046D00003213846FDF772FF052204213846FDF715
:1046E0006DFF052211463846FDF768FF8DF804403E
:1046F000A0038DF8065000908DF805608DF80740F6
:1047000069463846FDF71EFFBDE8FC8100300140D8
:1047100000040240F8B54D4D040012D002F07AFBBF
:10472000002861D1606AA0B1206900281AD0A08A4F
:10473000002817D0A069002814D0207F002811D0AD
:1047400041E043A344A2FC214BA0009502F036FABD
:10475000FEE751A340A240F2091147A0009502F0E4
:104760002DFAFEE7204601F059FC00283CD14E4BC3
:10477000257B00EB400203EBC2010E79AE4217D15C
:104780004E79677BBE4213D18E79A77BBE420FD193
:1047900000EB400053F83000A06003EBC2008068DB
:1047A00020618889A0820869A061087D207702E0E5
:1047B000401C1128DDD3206990B1A08A80B1A06986
:1047C00070B1207F60B10021374A237B0846803AD0
:1047D00002EBC0052D799D4207D152F8301007E059
:1047E00032A002F00DFA0120F8BD401C1028EFD3D2
:1047F00059B1A26822B13CA0236902F001FA08E095
:1048000045A0226902F0FCF903E04EA0216902F004
:10481000F7F9204601F060FD0028E5D1217D490728
:1048200006D500220121204602F062FB0028DBD1E0
:104830002169B1F1807F05D92046BDE8F84001210A
:1048400001F016BE002184F83510F8BD488E00082E
:10485000666C617368000000282573292068617305
:1048600020617373657274206661696C6564206190
:10487000742025732E0D0A002E2E5C324C6F774C5F
:10488000617965725C464C4153485C7372635C733A
:104890006675642E63000000666C6173682D3E735C
:1048A00070692E7772000000B08C00085761726E3C
:1048B000696E673A205468697320666C617368207A
:1048C000646576696365206973206E6F7420666F16
:1048D000756E64206F72206E6F7420737570706FC8
:1048E00072742E0D0A00000046696E642061202556
:1048F0007320257320666C61736820636869702E6D
:104900002053697A6520697320256C64206279746C
:1049100065732E0D0A00000046696E642061202533
:104920007320666C61736820636869702E20536918
:104930007A6520697320256C642062797465732E12
:104940000D0A000046696E64206120666C61736820
:1049500020636869702E2053697A65206973202569
:104960006C642062797465732E0D0A00054C4FF457
:10497000FA75D4F8A402C143C4F8A412284602F080
:1049800057FEF6E7008042420025074C01264FF40F
:104990004877C4F8A852C82002F04AFEC4F8A862BA
:1049A000384602F045FEF4E7008042421CB54FF461
:1049B0004070FDF707FFA820FEF7F0FEFFF7AEF806
:1049C0004FF4E130FFF718F8FEF7BAFFFEF7D8FF13
:1049D000FFF74CF9FDF7FAFB06490220CDE900018B
:1049E0000023802204A1074803F066FE03F060F86C
:1049F00000201CBD0000002073746172745F74613C
:104A0000736B00000571000838B50D46144930B1CC
:104A100072B190F83500002813D0042312E0009101
:104A200010A312A24FF4787118A002F0C7F8FEE7A5
:104A300000911EA30DA240F2E13114A002F0BEF8D5
:104A4000FEE70323002007E0191ACC00083C25FAF2
:104A500004F11154401CC0B29842F5D338BD000097
:104A6000FE8E0008666C61736800000028257329BB
:104A70002068617320617373657274206661696C6C
:104A800065642061742025732E0D0A002E2E5C3281
:104A90004C6F774C617965725C464C4153485C734E
:104AA00072635C736675642E6300000061727261EC
:104AB000790000002DE9F047054640789EB04FF0A0
:104AC0000009022804D1002229461046FEF70CFEF8
:104AD00009A86968FEF702FC8046B0F1FF3F1AD0D2
:104AE00024216846FBF7A8FF05F10C01AA788A4645
:104AF0006846FBF7C8FF0FA96846FFF77FFC002850
:104B00003DD1012306221CA940466E6803F0D8F867
:104B10000024361F1AE006201EB0BDE8F08704F11D
:104B20002000B04201D2202700E0371BE96A201D97
:104B300008443A466946FFF777FB08EB04003A461B
:104B40006946001DFFF780FB81463C44B442E6D332
:104B5000022306221CA9404603F0B2F8002209A84D
:104B6000696802F0BBFBE96ACDF800A0CDE9011845
:104B7000AB7806A240F2393110A0FFF7ABFA012260
:104B800029460020FEF7B0FD4846C5E74D6F766523
:104B9000642074686520454E562028252E2A7329E6
:104BA0002066726F6D2030782530385820746F2061
:104BB0003078253038582E0D0A0000002E2E5C3338
:104BC0004D6964646C654C617965725C656173798B
:104BD000666C6173685C7372635C65665F656E7654
:104BE0002E6300002DE9F0410E4D0F468046002453
:104BF00040F2493639464046FEF770FB0246401CFB
:104C000002D1697801B114B11046BDE8F0813B468C
:104C1000054A314605A0FFF75DFAFFF795FC012430
:104C2000E8E70000480100208C9E00082E2E5C332F
:104C30004D6964646C654C617965725C656173791A
:104C4000666C6173685C7372635C65665F656E76E3
:104C50002E6300002DE9F84F5FEA00094C48DDF8AB
:104C600028B01D4616460F464FF0000809F1200AED
:104C70000DD0012D14D0B5F5807F11D0009045A343
:104C80004EA24FF4197155A001F098FFFEE7009075
:104C90005AA34AA240F2622150A001F08FFFFEE722
:104CA00099F8341051B1D9F81000B91981420ED9D0
:104CB00054A001F0A5FF0520BDE8F88F00905BA38C
:104CC0003EA240F2662145A001F078FFFEE7DAF847
:104CD0000810504600294ED088474CE00121484634
:104CE00001F0B2FC5FEA000847D1544A022039467D
:104CF00002F8010B4846FFF787FE99F8350008B126
:104D0000052000E004208046B7FBF5F005FB10709D
:104D100060B1B7FBF5F005FB1070281AB04209D25C
:104D2000B7FBF5F005FB10702C1A04E0AE4201D978
:104D30002C4600E034464148361B27444044224676
:104D40005946FBF70AFE00200090DAF804C008EB91
:104D50000402504600233949E0475FEA000803D0C7
:104D600037A001F04DFF08E0484602F043FF5FEA3C
:104D7000000802D1A344002EB0D10021484601F022
:104D800063FCDAF80C10504601B18847404693E7BF
:104D9000898E000877726974655F6772616E203D65
:104DA0003D2031207C7C2077726974655F67726179
:104DB0006E203D3D20323536000000002825732945
:104DC0002068617320617373657274206661696C19
:104DD00065642061742025732E0D0A002E2E5C322E
:104DE0004C6F774C617965725C464C4153485C73FB
:104DF00072635C736675642E63000000666C617399
:104E0000680000004572726F723A20466C617368E8
:104E10002061646472657373206973206F757420F8
:104E20006F6620626F756E642E0D0A00666C61738A
:104E3000682D3E696E69745F6F6B0000D457002067
:104E40004572726F723A20466C617368207772699E
:104E500074652053504920636F6D6D756E69636191
:104E60007465206572726F722E0D0A002DE9F04193
:104E700005460078012788B04FF00008002841D08F
:104E800008686A6810440860687802283AD1A978EE
:104E900005F10C021DA0FFF7E9F9A868802826D2C9
:104EA00000241BE004F12001884201D9202600E003
:104EB000061B286B324620446946FFF7B5F9B8F166
:104EC000000F05D06A46314612A0FFF7CFF904E083
:104ED00031466846FFF7CAF848B13444A868A04292
:104EE000E0D837EA080004D04FF00108D8E70027DF
:104EF000F7E727B909A0AA68296BFFF7B7F90DA052
:104F0000FFF7B4F908B00020BDE8F081252E2A7320
:104F10003D000000252E2A7300000000626C6F62C5
:104F200020403078253038582025646279746573C4
:104F3000000000000D0A00002DE9F041184E0F4658
:104F40000446F5683068001D02F0EEF938B93068A3
:104F500090F82C1001208840316981433161601C38
:104F600007D137B13168BDE8F0410E48091D02F0A4
:104F70006DBA30682C44AC424460316805D2306C64
:104F8000BDE8F041091D02F049BAF06B091D02F0BD
:104F900045FAB06A844200D2B462BDE8F0810000F4
:104FA00050000020340300202DE9F041054602F0B6
:104FB00059FA2E4EB068401CB06030682C4F10B1CA
:104FC000706938B32CE03560B068012828D100241E
:104FD00004EB840007EB800002F012FA641C0A2C38
:104FE000F6D32348C83002F00BFA2148DC3002F037
:104FF00007FA1F48F03002F003FA1E4802F000FAE8
:105000001C48143002F0FCF91A483C38F0631430A4
:10501000306405E03068E96AC06A884200D83560CB
:10502000706A0121401C70622864E86A326981401C
:105030001143316100EB800007EB8000291D02F075
:1050400005FA02F02FFA706900280CD03068E96A7E
:10505000C06A884207D208494FF080500860BFF309
:105060004F8FBFF36F8FBDE8F0810000500000202C
:105070001C0200202003002004ED00E010B502F027
:10508000F1F90E4C2068A0B90D4802F0B9F90C48AE
:10509000143002F0B5F90A48E060143020610022B3
:1050A0000C210A2002F014FF206010B105A102F0CB
:1050B0007DFABDE8104002F0F5B900009400002030
:1050C00048030020546D72510000000030B4026C9F
:1050D0000B46002A0BD0C1681144C1608468A1420C
:1050E00001D30168C16030BC1846FBF736BC30BC48
:1050F00070472DE9F041856B174604460026026C87
:1051000082B1C7B1E068FBF728FCE168206C091A9E
:10511000E1602268914202D2A168081AE060022F81
:1051200016D017E02068A8B9A06803F069FB06460E
:105130000020A0600EE06068FBF70FFC216C606847
:1051400008446060A168884204D32068606001E080
:1051500005B16D1E6D1CA5633046BDE8F0810000F1
:10516000F8B513460E4605001ED06A4601211846C2
:10517000FDF734F904001FD031462846FBF73AFC0E
:1051800014A12846FBF780F921462846009AFBF730
:1051900038FB022217A12846FBF733FB2046FEF717
:1051A000C3FD88B114A110E0502080F31188BFF333
:1051B0004F8FBFF36F8FFEE7502080F31188BFF34E
:1051C0004F8FBFF36F8FFEE70FA12846FBF7B9FBA8
:1051D0000020F8BD546865206B65792076616C7598
:1051E0006520746F2062652064656C657465642059
:1051F00069733A000D0A000064656C656E7620657F
:1052000072726F72200D0A00546865206B657920F8
:10521000686173206265656E2064656C65746564A1
:105220000D0A000010B50446006B02F04FF920464D
:10523000BDE8104002F04AB9F8B513460E46050025
:1052400030D06A4601211846FDF7C8F8040031D075
:1052500031462846FBF7CEFB1DA12846FBF714F983
:1052600021462846009AFBF7CCFA02221CA12846C8
:10527000FBF7C7FA2046FEF77DFE040022D019A1F5
:105280002846FBF75EFB2046FBF7F1FA0246214673
:105290002846FBF7B6FA022211A12846FBF7B1FA1D
:1052A0000020F8BD502080F31188BFF34F8FBFF36B
:1052B0006F8FFEE7502080F31188BFF34F8FBFF34D
:1052C0006F8FFEE70BA12846FBF73BFBE8E70000EA
:1052D000746865206B6579206973203A00000000CE
:1052E0000D0A00007468652076616C75652069732D
:1052F000203A0000676574656E76206572726F7281
:10530000200D0A0010484FF4A041420706D0C01DEE
:105310000D4920F00700411AC1F5A0410B4A0023B6
:105320000144C2E900030839103A21F00701116075
:105330004B600B600B1AC0E9001393604FF0004004
:105340005360D0607047000070030020C40000204C
:1053500010B5094C0A46A16811B904F10C01A1600D
:1053600009684968FBF78FFBA0684068A0600028C7
:1053700000D0012010BD0000CC000020134E144DC1
:10538000A6F582774FF08058DFF8489011E002F0E0
:1053900069F8F068C468201D01F0C6FFA868401EC7
:1053A000A8606868401E686002F07CF82046FFF73D
:1053B00039FF68680028EAD138680128F9D9C9F8A6
:1053C0000080BFF34F8FBFF36F8FF2E72003002001
:1053D0005000002004ED00E02DE9F05F0E46DDE90D
:1053E0000B941746834691009A460A9DA522206B8E
:1053F000FBF7F8FA6FF00301206B01EB870108441B
:1054000020F00707780707D0502080F31188BFF3FA
:105410004F8FBFF36F8FFEE74FF0000866B100209B
:105420002218315C82F83410315C11B1401C0A281A
:10543000F6D384F83D8001E084F834800A2D00D34F
:105440000925E562C4E91258201D01F0E4FF04F1CA
:10545000180001F0E0FF2461C5F10A006462A06158
:10546000C4F85080C4F8548084F858805246594695
:10547000384600F001FD2060B9F1000F01D0C9F8F5
:105480000040BDE8F09F000030B5114900E0114632
:105490000A688242FBD34B685C18844203D140689F
:1054A00018444860084643681C18944209D1084CC7
:1054B000103C2468A24209D052681A4442600A682B
:1054C00012680260814200D0086030BD0460F9E7D4
:1054D000C400002070B5002441600B4D0061914272
:1054E00006D8D11A8269914206D2011D286907E0C7
:1054F0009A4203D2994201D3012403E0011DE868D6
:1055000001F08CFF204670BD9400002010B50446C9
:1055100001F0A8FFA06B20B1002401F0C3FF2046DA
:1055200010BD0124F9E72DE9F0478146086892464D
:105530000C460025F8B1486801F10806406848604B
:10554000B04201D140684860D0F80C806068426881
:105550006260B24201D151686160606805EBC501CB
:1055600009EB8101C76853460122384602F0DCF896
:105570006D1C4745EAD12846BDE8F087F8B51346CB
:105580000F4605001FD0194E716821B36A461846B0
:10559000FCF724FF040024D039462846FBF72AFAFA
:1055A00013A128467268FAF76FFF21462846009A31
:1055B000FBF727F9022210A12846FBF722F97168B0
:1055C0000120491C10E0502080F31188BFF34F8F59
:1055D000BFF36F8FFEE709A1FAF756FF0120706055
:1055E000F8BD0021297008467160F8BDF000002068
:1055F00025643A20000000000D0A00005468652070
:10560000706172616D657465727320776572653A59
:105610000D0A000010B5040007D0FEF739FE07A1FF
:105620002046FAF731FF002010BD502080F311888A
:10563000BFF34F8FBFF36F8FFEE7000044697370B5
:105640006C617920706172616D6574657273206C34
:105650006973740D0A00000030B585B0394D67E0FC
:105660000198002864DB039C606910B1201D01F0E3
:105670005BFE04A800F03CF9024601980A2857D2C4
:10568000DFE800F00505052D334A05052D3394F8B4
:10569000280040F0010084F828000298A169034620
:1056A00001442046FFF716FF68B3216A2046884769
:1056B00094F8280040073BD5002000900298A1698B
:1056C000002342181946204603F0F2F9D8B95020B9
:1056D00080F31188BFF34F8FBFF36F8FFEE714F88D
:1056E000280F20F00100207022E094F8280040F0FC
:1056F000010084F828000298A06128B1811813469F
:105700002046FFF7E7FE13E0502080F31188BFF337
:105710004F8FBFF36F8FFEE794F82800810703D403
:10572000204601F0D3FE03E020F0010084F82800B9
:10573000002201A9286802F049FD002890D105B097
:1057400030BD0000940000202DE9FC410F460546C5
:1057500002F0EAF901A800F0CBF80446019818B16C
:1057600003F01EF9BDE8FC81254EAFB13069006839
:10577000D0B30027291B3A46306801F029FF03F017
:105780000FF90028EED11F494FF080500860BFF399
:105790004F8FBFF36F8FE5E7A542EBD803F000F919
:1057A000F0682746C068C468201D01F0BDFD94F86C
:1057B0002800410719D5A0692B4641193A462046D1
:1057C000FFF788FEA8B100200346014600902A4654
:1057D000204603F06DF960B9502080F31188BFF3C3
:1057E0004F8FBFF36F8FFEE707E020F0010084F8D2
:1057F0002800216A20468847B4E70127BAE700005D
:105800009400002004ED00E010B5040004D0FEF781
:1058100023FB48B107A108E0502080F31188BFF3B3
:105820004F8FBFF36F8FFEE709A12046FBF789F882
:10583000002010BD65665F656E765F7365745F649A
:10584000656661756C74206572726F72200D0A0056
:10585000526573746F72652064656661756C74203F
:1058600053657474696E67732053756363657373EE
:105870000D0A00000648C16B096829B1C16BC968EF
:10588000C9684968816270474FF0FF31FAE700004C
:105890005000002070B5134D04001BD012A1FAF780
:1058A000C2FF2046FAF7E3FF04440420002220212F
:1058B00004F8011B401C22700728F9DB294620460A
:1058C000FAF7B1FF2846FAF7D2FF204401F06CFF47
:1058D000002070BD502080F31188BFF34F8FBFF3BD
:1058E0006F8FFEE7AC9800085461736B00000000F6
:1058F00070B5054602F01AFF064E0446B0688442B1
:1059000003D200F08FF8012000E00020286020463C
:10591000B46070BD940000202DE9FC4114460F4690
:1059200006003BD06A4601212046FCF757FD05469C
:1059300001AA02212046FCF751FD0446002D35D076
:10594000002C3BD0009900206854019960543946DE
:105950003046FBF74FF821A13046FAF795FD29466E
:105960003046009AFAF74DFF022220A13046FAF79E
:1059700048FF1FA13046FAF7E4FF21463046019A5E
:10598000FAF73FFF022219A13046FAF73AFF214603
:105990002846FEF7CBFCC8B119A118E0502080F3CF
:1059A0001188BFF34F8FBFF36F8FFEE7502080F356
:1059B0001188BFF34F8FBFF36F8FFEE7502080F346
:1059C0001188BFF34F8FBFF36F8FFEE710A13046F2
:1059D000FAF7B7FF0020BDE8FC810000546865209D
:1059E0006B6579206973203A000000000D0A000001
:1059F0005468652076616C7565206973203A0000F3
:105A0000736574656E76206572726F72200D0A0080
:105A1000736574656E762073756363657373200DAB
:105A20000A000000F8B5194E20E0C068C468056897
:105A3000201D01F079FC216A2046884794F828004F
:105A4000400713D5A0692844A84206D924616060A4
:105A5000211DF06801F0E2FC08E000200346014649
:105A600000902A46204603F023F838B1F068016818
:105A70000029DAD13169C6E90310F8BD502080F35E
:105A80001188BFF34F8FBFF36F8FFEE794000020A4
:105A900008484068401C4FF0500080F3118804D043
:105AA000BFF34F8FBFF36F8FFEE7BFF34F8FBFF38F
:105AB0006F8FFEE7A800002070B5134D04001BD0C7
:105AC00012A1FAF7B0FE2046FAF7D1FE04440420F2
:105AD0000022202104F8011B401C22700728F9DB5A
